:100000000C9403030C9409310C943B030C943B03B4
:100010000C943B030C943B030C943B030C943B0368
:100020000C943B030C943B030C94EE270C94A926F0
:100030000C94B0290C943B030C943B030C943B03AD
:100040000C943B030C943B030C943B030C943B0338
:100050000C943B030C9447290C943B030C943B03F6
:100060000C943B030C943B030C943B030C943B0318
:100070000C943B030C943B030C943B030C943B0308
:100080000C943B030C943B030C943B030C943B03F8
:100090000C943B030C943B030C943B030C943B03E8
:1000A0000C943B030C943B030C943B034D084D080C
:1000B00080088008F30811091F0A1F0A1C0990090B
:1000C000A109A1097F0F820F9E0FAB0FB20FBD0FC9
:1000D000C00F03102E10D310D31039103B103F1057
:1000E000651088108B108E10B210E11A081BB11C1D
:1000F000081BB11C541B771BB11C6C1C7C1C000022
:1001000000000000000000000000000000000000EF
:1001100000000000000000000000000000000000DF
:1001200000007E0F00D4FFFFFFC700000078000032
:100130000000000000002A2B280000000000000042
:1001400000000000000000000029000000002C1E3C
:100150003420212224342627252E362D3738271EF9
:100160001F202122232425263333362E37381F041F
:1001700005060708090A0B0C0D0E0F1011121314B7
:1001800015161718191A1B1C1D2F3130232D350475
:1001900005060708090A0B0C0D0E0F101112131497
:1001A00015161718191A1B1C1D2F3130354C050157
:1001B0000902A10185020901A10005091901290807
:1001C00015002501950875018102050109300931E5
:1001D0001581257F95027508810609381581257FCF
:1001E000950175088106050C0A38021581257F9551
:1001F0000175088106C0C005010980A101850319A8
:10020000012AB700150126B700950175108100C0BD
:10021000050C0901A101850419012AA00215012676
:10022000A002950175108100C00660FF0961A1015F
:100230000962150026FF00952075088102096315E3
:100240000026FF00952075089102C005010906A14E
:1002500001050719E029E7150025019508750181B9
:10026000029501750881010507190029FF1500266F
:10027000FF009506750881000508190129059505F7
:1002800075019102950175039101C009025B00039C
:100290000100A0FA09040000010301010009211175
:1002A0000100012240000705810308000109040143
:1002B00000020300000009211101000122220007B1
:1002C0000582032000010705030320000109040241
:1002D000000103000000092111010001227B000739
:1002E000058403200001120100020000000810CB69
:1002F00056620006010200011803490072006900FD
:10030000730020005200650076002E0020003600A9
:1003100000000E034B0065006500620069006F007D
:1003200000000403090400010101010101010101B0
:100330000202020202020202020303030303030396
:100340000304040404040404050505050506060663
:100350000606070707070708080808090909090A20
:100360000A0A0B0B0B0C0C0C0D0D0D0E0E0E0F0FC5
:100370000F10101111111212131314141515161653
:100380001717181819191A1A1B1B1C1D1D1E1E1FC2
:100390002020212222232424252626272829292A11
:1003A0002B2C2D2D2E2F3031323233343536373839
:1003B000393A3B3C3D3E3F40414243444546474835
:1003C000494A4C4D4E4F50515354555658595A5B0B
:1003D0005D5E5F616264656668696B6C6D6F7072AB
:1003E000737577787A7B7D7E8082838587888A8C17
:1003F0008E8F91939596989A9C9EA0A2A3A5A7A94B
:10040000ABADAFB1B3B5B7BABCBEC0C2C4C6C9CB41
:10041000CDCFD1D4D6D8DBDDDFE2E4E7E9EBEEF0F7
:10042000F3F5F8FAFDFF29001E001F00200021004F
:1004300022002B0014001A00080015001700E0002D
:1004400004001600070009000A00E1001D001B005F
:1004500006001900050000000000E300105F2800FE
:100460004A002A00270026002500240023004C0013
:10047000130012000C0018001C00340033000F00A1
:100480000E000D000B00E5003800370036001000AC
:10049000110000000000E600115F2C004D00350245
:1004A0001E021F02200221022202005C1E001F0009
:1004B0002000210022004C00010050004F0052009B
:1004C0002F00C05C01000100010051002F0200005C
:1004D0000000010001004C0026022A00270226022B
:1004E0002502240223020100270026002500240003
:1004F000230031022E025E005D005C00300001002E
:100500002D005B005A00590030020000000062001C
:1005100001004C00270245003A003B003C003D0032
:100520003E00C25C1E021F02200221022202C35CA6
:10053000AC00AB00A9004B002D02A800AD00AE003E
:10054000AA004E002D000000000001000100010083
:100550002602440043004200410040003F000100E9
:10056000270226022502240223023100C95CC75C4F
:10057000C55C4A002E000100CA5CC85CC65C4D0028
:100580002E02000000000100010001000100010036
:100590000100010001000100010001000100010053
:1005A0000100010001000100010001000100010043
:1005B0000100010001000100010001000100000034
:1005C0000000010001000100010001000100010024
:1005D0000100010001000100010001000100010013
:1005E0000100010001000100010001000100010003
:1005F00001000100010001000100000000000100F5
:1006000001000100010011241FBECFEFDAE0DEBFC0
:10061000CDBF04B603FE18C08091F8049091F90490
:10062000A091FA04B091FB048730904BA740B04BE7
:1006300059F41092F8041092F9041092FA041092EE
:10064000FB04E0E0F8E3099512E0A0E0B1E0E2E8A5
:10065000F6E602C005900D92A63CB107D9F724E05A
:10066000A6ECB2E001C01D92A83FB207E1F70E94DC
:10067000E20A0C943F330C9400000E94B4202FEF48
:1006800084E39CE0215080409040E1F700C00000EE
:100690009CE088E10FB6F894A895809360000FBEA7
:1006A00090936000FFCF8823C1F19CEF980F913A9F
:1006B00060F4E9E7F3E09281891301C01282319678
:1006C00093E0EF37F907B9F70DC090E2980F983033
:1006D00060F4877091E001C0990F8A95EAF7892F3D
:1006E0000E943A1D0E94411D08959BE5980F93308A
:1006F00028F480E090E00E94092A089598E5980F78
:10070000973128F480E090E00E94F3290895803F1B
:1007100020F00E9412250E94E8240895CF93882398
:1007200009F458C0C82F8CEF8C0F813AF8F4EBE72E
:10073000F3E081E893E02191C21721F08E179F0723
:10074000D1F70EC0E9E7F3E08FE793E02281C2130F
:1007500001C0128231968E179F07C1F70E94411D7A
:100760006C2F89E793E00E94D92910C080E28C0F9A
:10077000883078F4C77081E090E001C0880FCA9596
:10078000EAF79091DB03892B8093DB030E94411DE4
:1007900021C0EBE5EC0FE33040F4F0E0ED58FE4F04
:1007A000808190E00E94092A15C0E8E5EC0FE7314E
:1007B00050F4F0E0EE0FFF1FEA58FE4F8081918168
:1007C0000E94F32907C0C03F28F08C2F0E94CB2540
:1007D0000E94E824CF910895A7E1B0E0E2EFF3E0B2
:1007E0000C9439324B8B5C8B6D8B7E8B8F8B6111B4
:1007F0001092DA0386E09E01235F3F4FD901E82F74
:100800001D92EA95E9F795E0FE017396D9010190F2
:100810000D929A95E1F79C894E895F897B897D8746
:100820009E876F87598B488BF901DE0117960190DF
:100830000D928A95E1F7CE0107960E94681E8111FC
:100840003EC086E0FE013796DE01119601900D92C2
:100850008A95E1F7FF81E8856A857B8561157105D9
:1008600031F0EF3F31F481E0FF3F19F403C081E044
:1008700001C080E080FD23C020919F0330E0C901CA
:100880000196877099274091D00350E0841795070F
:1008900079F1F983EA837D836C8396E0929FD0019E
:1008A000939FB00D1124A056BC4FFE0131960190CC
:1008B0000D929A95E1F780939F030E94991D16E08F
:1008C0008091D00390919F038917F9F0189FC00180
:1008D000112480569C4F0E94681E8823B1F080919D
:1008E000D00390E00196877099278093D003E8CFDA
:1008F0000E94B42010929F031092D003E9E9F3E024
:1009000086E0DF011D928A95E9F76796E3E00C9493
:100910005532A9E0B0E0EFE8F4E00C942B32FC0192
:100920008081918123813481232B31F09F3F31F4E9
:1009300091E08F3F19F403C091E001C090E090FD79
:100940002AC67F0185E0DE01119601900D928A95FD
:10095000E1F7F701228189819A81222349F00E94DF
:100960000C1E182F682F89819A810E94232003C0B2
:100970000E94EF1F182F69817A81812F0E94A92A76
:100980008C01F7018281882309F4F5C09801225176
:100990003F452031310508F00AC18FEF93E00E94F6
:1009A00071328111F2C0025137E0832E32E0932E72
:1009B000002379F08114F4E09F0609F4E6C0C40135
:1009C0000E947132811101C001502FEF821A920AE8
:1009D000EFCF1E821F8218861986442443942AE092
:1009E000322E84010F5F1F4FC4010E9471328E832B
:1009F0001F82882309F4C9C09FEF980F933060F4D9
:100A00008F834E8232E0830E911CC8010E947132A6
:100A10008887811102C0B9C048018E010A5F1F4F4B
:100A2000F80120812223E9F2213009F04CC08181B4
:100A3000813049F46801F2E0CF0ED11CF8018281C7
:100A40000E94D1200AC0823051F46801F2E0CF0E3A
:100A5000D11CF80182810E948E03860189C08330F7
:100A600049F46801F2E0CF0ED11CF80182810E94A6
:100A70005303F3CF843019F00F5F1F4F79C0F80193
:100A800022810E5F1F4F80E090E030E0205331095B
:100A90002A30310568F4389EA001399E500D11248A
:100AA000C901840F951F0F5F1F4FF8012081EDCF03
:100AB000009709F45DC0EFE9FFE03197F1F700C05E
:100AC00000000197F5CFE22FF0E0E25DFE4F549079
:100AD000822F86958695869590E0FC01E25EFE4F1A
:100AE00064902770712C022E02C0759467940A944A
:100AF000E2F7F1E06F227724FC01E25FFE4FA49061
:100B0000B12C022E02C0B594A7940A94E2F731E00A
:100B1000A322BB24FC01E250FF4FC490D12C02C0A1
:100B2000D594C7942A95E2F781E0C822DD246114A8
:100B3000710419F081EE0E948E03A114B10419F022
:100B400086EE0E948E03852D0E94D120A114B1044F
:100B500019F086EE0E9453036114710419F081EEBE
:100B60000E945303C114D10419F08CE20E94D120D9
:100B70000F5F1F4F55CF00313FE5130709F07EC4CB
:100B800081E00E945D200E94F9168091D103877058
:100B900009F401C5F7018281882309F4FCC480911E
:100BA000DA0282FFF8C482E00E946A20F4C40031B5
:100BB000FFE51F0711F481E005C001312FE51207A1
:100BC00021F482E00E94A320DECF033FFCE51F0753
:100BD00049F406E221EE40EE63EF7CE5C7010E9496
:100BE000302AD3CF043F2CE5120708F069C1083D35
:100BF0003CE5130731F407E225EE45EE68ED7CE5B0
:100C0000EDCF093D9CE5190731F408E221E045EEFE
:100C100069ED7CE5E3CF073DECE51E0731F406E224
:100C200021EE41EE67ED7CE5D9CF882309F47DC143
:100C30001092ED0303309DE5190758F40A3FECE5E7
:100C40001E0780F4C80182509C45449708F057C1A4
:100C500009C00136FDE51F0729F0053A2DE5120709
:100C600009F04DC10E94DC169093DA028093D902FC
:100C700001313CE5130709F4C9C008F043C009304D
:100C80009CE5190709F49EC008F50530FCE51F072F
:100C900009F488C080F403303CE5130709F47BC0F5
:100CA00008F07DC002309CE5190709F0F9C0809179
:100CB000D9028160F3C00730ECE51E0709F47AC061
:100CC00008F07CC08091D9028061E8C00D302CE52D
:100CD000120709F489C058F40B308CE5180709F4A1
:100CE0007BC008F07DC08091D902886071C00F3050
:100CF000ECE51E0709F482C008F084C08091D90297
:100D0000877FCCC00D3F2CE5120709F473C008F5AE
:100D100005318CE5180709F487C068F40331ECE568
:100D20001E0709F477C008F097C00E94B420809194
:100D3000D9028F77B3C00B3F2CE51207B9F108F049
:100D400056C00A3F8CE5180709F0AAC08091DA0264
:100D500041C001309DE5190709F48AC058F40F3FDE
:100D6000FCE51F0709F45BC008F06AC08091DA0255
:100D7000826030C001363DE5130709F47FC0053AB3
:100D80008DE5180709F484C002309DE5190709F0C4
:100D900087C060E06EC08091D90282607FC0809180
:100DA000D90216C08091D902886078C08091DA0299
:100DB00082604FC08091D902806270C08091D90258
:100DC00080646CC00E94B4208091D902806866C0A3
:100DD000846064C081603DC08091D9028E7F5EC016
:100DE0008091D9028D7F5AC08091D90216C080911E
:100DF000DA0218C08091DA028D7F2BC08091D9026F
:100E00008F7E4CC08091D9028F7D48C08091D902DD
:100E10008F7B44C08091D902877F8B7F3FC08091B8
:100E2000DA028D7F8E7F15C08091D90282FB222746
:100E300020F991E0922790FB82F990FB83F92EC074
:100E40008091DA02982F909591708E7F892B90FB7C
:100E500081F98093DA0224C00E94B4208091D902E3
:100E600087FB222720F991E0922790FB87F916C093
:100E700061E08EE090E00E948F3212C08091D90232
:100E800084FB222720F991E0922790FB84F906C089
:100E90008091D902982F909590FB80F98093D90288
:100EA0006091D9021091DA0284E090E00E948F32C2
:100EB000612F82E290E00E948F320E94B42065CEC2
:100EC000053FFCE51F0731F406E221EE42EE65EF37
:100ED0007CE584CE053F2CE5120730F407E225EED1
:100EE00044EE64EF7CE57ACE063F3CE5130709F05B
:100EF0009CCE07E225EE46EE66EF7CE56FCE06312E
:100F00008CE5180759F58091DB038A7A91E009F4A2
:100F100090E09093C802882311F065E301C069E274
:100F200089E793E00E94D92916C00631ECE51E0737
:100F300009F04BC08091C802882309F4A6C285E35A
:100F4000E9E7F3E09281891301C01282319623E030
:100F5000EF37F207B9F70E94411D17CE0A35FDE5BC
:100F60001F0769F158F401153CE5130781F00E3DA8
:100F70001C4509F045C00E94C91C17C00C359DE5F1
:100F80001907A9F0F0F0073A1D4579F039C00E9421
:100F9000B4202FEF34E38CE0215030408040E1F763
:100FA00000C000000E942329F0CD0E943D038091E3
:100FB000DA0282FB882780F991E0892703C081E06B
:100FC00001C080E00E9487201BC08091DB038272F9
:100FD0000A3C3CE5130709F4C5C208F458C20F3CAB
:100FE0003CE5130709F4D2C208F484C2063D8CE53F
:100FF000180708F491C20D35EDE51E0709F4C5CDBB
:10100000F701828100811181882349F0C8010E9483
:101010000C1ED82E682FC8010E94232004C0C801CE
:101020000E94EF1FD82EB8018D2D0E94A92A0E9480
:10103000E514B82E192F982EF7010281A580A294ED
:101040009FE0A9228091D1038770B9F00023A9F015
:10105000812F807F803421F080E28B0D883068F012
:101060008091DA0282FF09C082E00E946A208091AA
:10107000D1038770DD24D3948111D12CC12EC29469
:101080008FE0C8228C2D90E08C30910508F0D7C1FC
:10109000FC01EA5AFF4F0C94FA32812F807F1F70B7
:1010A000882311F01295107F0023B9F0112309F461
:1010B000B4C180E28B0D883010F0911006C0809191
:1010C000DB03182B1093DB0305C08091DA03182B88
:1010D0001093DA030E94411DA0C18B2D0E9453037F
:1010E000112309F4ACC180E28B0D883080F1992086
:1010F00071F110958091DA0318231093DA032AC056
:10110000812F807F1F70803211F01295107F8B2D00
:10111000992021F0F1E09F16D9F149C08091DA02BF
:1011200082FD1BC0002369F0112339F08091DB039D
:10113000182B1093DB030E94411D80E00E948E0358
:101140007EC180E00E945303112309F478C1812FEE
:101150000E943A1D0E94411D72C1002381F08091BE
:10116000DC03AA2051F021E0A21207C0182B1817A7
:1011700009F465C11093DC0362C1812B10C0AA2061
:1011800021F031E0A31609F45AC10E94341D27C092
:10119000002341F085E08A1508F451C1812F0E9497
:1011A000C7204DC194E09A1508F449C118C0002326
:1011B00049F0AA2099F3F701858180FF2EC18F7035
:1011C0008583ECCFAA2059F0893309F035C1FFEFB0
:1011D00027EE33E0F15020403040E1F72BC1812F62
:1011E0000E94C0202CC1812F86958695837019F0AE
:1011F000813061F024C1002321F08B2D912F937059
:1012000002C080E090E00E94092A1FC1002321F063
:101210008B2D912F937002C080E090E00E94F32903
:1012200014C18B2D002319F00E94CB2502C00E940F
:1012300012250E94E82409C1812F8370A9F50111AC
:1012400002C14B2D429546954770440F440F8B2D9C
:101250008F7090E09C01042E01C0220F0A94EAF7DF
:10126000B4FE08C08FE090E001C0880F4A95EAF70D
:10127000809501C080E0169516951370123069F0C4
:1012800088F49091DD03113019F0822B892302C07C
:10129000922B892B0E94AF20D6C0822B9091DD0328
:1012A0008927F8CF822BF6CF002319F0812F817088
:1012B00001C08695882309F4C6C04B2D42954695FA
:1012C0004770440F440F8B2D8F7090E09C01042ECB
:1012D00001C0220F0A94EAF7B4FE08C08FE090E044
:1012E00001C0880F4A95EAF7809501C080E0169505
:1012F00016951370123059F078F4909178031130EC
:1013000019F0822B892309C0922B892B06C0822BCE
:1013100090917803892701C0822B0E94582093C0A6
:101320001F70002339F0812F0E94A3208B2D0E9473
:10133000C72089C08B2D0E94C020812F0E945D2074
:1013400082C08B2D92EF991681F1991538F0E0EF5C
:101350009E1659F0F1EF9F1619F15BC023EF92161C
:1013600059F134EF9316C1F054C0002381F084E0AA
:101370008A1508F464C01F7181E090E0012E01C05D
:10138000880F0A94EAF790917803892720C095E0A6
:101390009A1508F454C0EFCF8091DA0282FD1AC08A
:1013A000002329F0812F8F7127C00023D9F3812FCB
:1013B0008F710E945D2043C0002341F01F7181E0C6
:1013C000012E01C0880F0A94EAF701C080E00E9454
:1013D000582035C0002399F01F71812F0E94A3204F
:1013E0008091DA0282FF07C0E8E01E9FC00111244D
:1013F00083608093D103812F0E94A32020C081E0CD
:101400000E946A20F1E0FA15D0F482E00E946A207E
:1014100016C0002321F0AA2029F28B2D8FCEAA20FE
:1014200031F2893349F42FEF37EE83E02150304019
:101430008040E1F700C000008B2D0E94530388EF2D
:101440008C0D843010F40E941F2ADD2009F4A3C003
:101450008091D10380FD9FC0F7011282859585950B
:1014600085950E94A320C7010E9489048091D10321
:101470008595859585950E945D208DC001319FE5FC
:10148000190709F0A2CB82E07CCB89E259CD053C5B
:10149000ECE51E0709F452C0D0F4033C2CE512071A
:1014A00009F442C008F045C0023C8CE5180709F079
:1014B000A7CD9091490381E0892780934903109239
:1014C000500180912B04816080932B045ECB073CFC
:1014D0009CE51907E9F1B8F1083CFCE51F07E9F1C3
:1014E000093C2CE5120709F08BCD40E25FE26EE289
:1014F0007FE246C00C3CECE51E07F1F1C0F10D3C6B
:101500002CE5120709F43FC00E3C3CE5130709F037
:1015100077CD61E085E03CC0013D9CE5190708F00E
:1015200034CB61E082E134C047E85FE262E97FE208
:1015300027C042E95FE267E87FE222C048E55FE258
:1015400063E67FE21DC043E65FE268E57FE218C024
:101550004CE35FE26AE47FE213C04AE45FE26CE3DB
:101560007FE20EC04EE25FE260E27FE209C047EE3A
:101570005DE265EF7DE204C045EF5DE267EE7DE28E
:101580000E94062F02CB61E081E002C061E08DE0A5
:101590000E946E2FFACA2996E1E10C94473281111C
:1015A00006C0662311F089EA09C08AEA07C08130C3
:1015B00039F4662311F08EE401C08BE40E94D1203F
:1015C00080E00895AAE2B0E0E8EEFAE00C942A3256
:1015D00085B7806885BF85B7806885BF84B7877FFA
:1015E00084BF0FB6F894A8958091600088618093BD
:1015F0006000109260000FBE90E080E80FB6F89493
:1016000080936100909361000FBE86E291E1909318
:10161000C7028093C6020E94ED260E949327809104
:10162000E20084608093E200789480913B038823F9
:10163000A1F01091E9001F709091EC00892F81704A
:1016400090FD80E8182B1092E9008091E80083FD5E
:101650000E94FE191F701093E90082E084BD93E0A0
:1016600095BD9AEF97BD80936E001092C9021092BB
:10167000CA021092CB021092CC020E94ED2E811170
:1016800002C00E94DD2E0E94CA1280930B010E94AC
:10169000A71281110E94C43080910B01811128C0D2
:1016A00085E0E1E5F1E0DE01919601900D928A95E9
:1016B000E1F7FE01B196A6E0B1E0CE018696219158
:1016C0002D938E179F07D9F786E0E6E5F1E0DE015E
:1016D000119601900D928A95E1F7FE013196A0E0F6
:1016E000B1E0CE01079621912D938E179F07D9F770
:1016F00080910B01882311F090E001C095E0909358
:10170000D80285E0891B8093D70206E011E0D8015A
:101710008D918D018F3F11F00E94D112B1E00B30FD
:101720001B07A9F700E011E096E0E92E91E0F92E01
:10173000F80181918F018F3F11F00E94D112E016C4
:10174000F106B1F78AE0E1EFF2E0DF01282F1D9208
:101750002A95E9F7EDECF2E0DF011D928A95E9F7B1
:101760000E94ED16811102C00E94C91C82E090E027
:101770000E9471328093DD020E94DC169093DA029F
:101780008093D9020E94E812EFE3FCE93197F1F768
:1017900000C000000E94E8128091F10280FF08C0A2
:1017A0006FEF7FEF80E090E00E94AD320E9423292E
:1017B00083E090E00E9471320E94AF2010924F03AC
:1017C000E8E6F3E088E793E02FEF3FEF21933193D2
:1017D0008E179F07D9F71092FD03E6E1F4E086E249
:1017E00094E02FEF3FEF219331938E179F07D9F7A6
:1017F0000E94ED16811104C00E94C91C0E94AE23F4
:1018000046E050E06CE170E089E493E00E946132D0
:1018100010922B04809149038C7F11F40E94AE2317
:1018200090910B0181E098279093EC02F82FF91B1F
:10183000F093DC0290910B018093ED0290910B01EB
:101840008093DB0280910B01811106C083E38093BA
:10185000190182E38093180180911901E82FE29524
:10186000EF70F0E041A1282F2F7081E090E0BC01E3
:1018700002C0660F771F2A95E2F79B01362F30953D
:10188000342331A332A1232B22A320911801E22F6C
:10189000E295EF70F0E031A12F7001C0880F2A951A
:1018A000EAF7982F9095932391A392A1892B82A375
:1018B0008FE891E00197F1F700C000007091ED0210
:1018C0004EEE52E009E111E0A8E1B1E060E06717F7
:1018D00051F1F80121918F01822F82958F7090E054
:1018E000FC0180A190E02F7002C0959587952A9504
:1018F000E2F781709D91292F22952F7030E0F90138
:1019000020A130E09F7002C0359527959A95E2F7A7
:1019100020FF02C092E001C090E0892BFA01819380
:10192000AF016F5FD4CF0E94A712811102C00E9445
:10193000C7308CE091E09093F1038093F00318E1BD
:10194000212E312CBB24B3940BEF402E02E0502EFD
:1019500084E0C82ED12C80913B03853009F053C020
:10196000B0E4FB2E00E112E180913B03853009F0E9
:1019700044C080913B03843009F42FC00E94AB2FF8
:1019800080912A04811105C00E94052B80E00E94ED
:101990009E2FF1E0F0932A041092F4030FB6F8940E
:1019A000A895209260000FBEF092600083B7817FFF
:1019B000846083BF83B7816083BF7894889583B741
:1019C0008E7F83BF0FB6F894A895809160008861E0
:1019D00080936000109260000FBE80913A038823CC
:1019E00009F4C2CF0E94E812E1EFF2E08191811187
:1019F00004C44E165F06D1F7B7CF0E94B4200E94F0
:101A00001F2A10922A040E94E81281110E9498292C
:101A1000A1EF6A2EA2E07A2EAEEDB2E0F30100E073
:101A200010E0802E91908D91892509F4A8C0F12CA9
:101A3000EE24E394982F9E2109F49CC00E94A712E3
:101A40009E20882399F0F9A28AA281E0911001C01A
:101A500080E08BA30E94A4298160782F9DA38CA392
:101A600049A15AA16BA18DA10E94EC03F801E25299
:101A7000FD4F8081E826E082992089F086E0809FF2
:101A8000F001819FF00D1124EB54FE4FEF0DF11D7D
:101A900080818F3F21F0A82E9924939401C0912C2E
:101AA000092D10E08091FD039801280F311D293088
:101AB0003105ACF188E090E07C01E01AF10AB80150
:101AC0006F5F7F4F63507C4FA7018EEF93E00E94C2
:101AD0003633B801675F7F4F63507C4FA70186E0C4
:101AE00094E00E943633A701440F551FB801660FDA
:101AF000771F675E7F4F63507C4F86E194E00E94C2
:101B00003633B8016F5E7F4F63507C4FA7018EE084
:101B100094E00E94363388E089198093FD03809118
:101B2000FD0390E0AA2DB0E09D01220F331F2F503E
:101B30003E4FAA0FBB1FBD016E507E4F41E0480FC4
:101B40009915A8F490E0FC01E350FC4FD9015C9199
:101B50005183DB015C915187A18A880F991FFC0199
:101B6000E350FC4F128E118E91E0842FE7CF8093CB
:101B7000FD031BC0F394EE0C26E0F2125BCF0F5F67
:101B80001F4F0A30110509F04CCF8FEF8EA38FA3A2
:101B900018A60E94A4298160782F9AA789A74EA130
:101BA0005FA168A58AA50E94EC030E94A7120E946B
:101BB000AB2FE12C912C8091ED02E81608F078C053
:101BC0000E2D10E0F801E75EFE4F8081E82FE295D0
:101BD000EF70F0E0E0A1F0E08F7002C0F595E795BE
:101BE0008A95E2F7E170D801A85EBE4F2C91A22F32
:101BF000A295AF70B0E090968C9190E02F7002C0EB
:101C0000959587952A95E2F780FF02C082E001C092
:101C100080E04E2F482BD801A251BD4FEC918E2F62
:101C2000837090E0242F042E000C330B821793074F
:101C3000E9F1EE0FEE0FE42BEC93F090EC02FE0CCA
:101C4000EF70F0E0E15AFE4F06511D4F9081D80130
:101C50008C91890F8C9384306CF0EF2DF0E0E8517B
:101C6000FD4F80818F5F808360E08F2D0E94CF0ABF
:101C700021E001C020E0F80180818D3F64F4EF2D68
:101C8000F0E0E851FD4F80818150808361E08F2D2D
:101C90000E94CF0A21E0D8018C91082E000C990BEC
:101CA000B6010E94C732F8018083922AE39483CF61
:101CB00091100E947F1686E0E5EEF3E08E010F5F43
:101CC0001F4FD80101900D928A95E1F71092E7031A
:101CD0001092E8031092E9031092EA038B818111BC
:101CE00004C08C81882309F451C08091E303909152
:101CF000E4030E9489299C019091DF03992309F450
:101D00009BC22531310508F441C09F3F19F09F5F08
:101D10009093DF03FB80FF2061F00E94AB251F142E
:101D200014F491E001C09FEF899F802D11248093CE
:101D3000E703FC80FF2061F00E94AB251F1414F420
:101D400091E001C09FEF899F802D11248093E803CB
:101D50003091E7033323D1F02091E8032223B1F03F
:101D600045EB3403C0011124992319F09093E70344
:101D700002C0B092E70365EB2603C001112499234A
:101D800019F09093E80302C0B092E8038D818111AD
:101D900004C08E81882309F451C08091E1039091A1
:101DA000E2030E9489299C019091DE03992309F4A2
:101DB00048C22135310508F441C09F3F19F09F5FAB
:101DC0009093DE03FD80FF2061F00E9489251F149F
:101DD00014F491E001C09FEF899F802D112480931E
:101DE000E903FE80FF2061F00E9489251F1414F48E
:101DF00091E001C09FEF899F802D11248093EA0319
:101E00003091E9033323D1F02091EA032223B1F08A
:101E100075EB3703C0011124992319F09093E9035E
:101E200002C0B092E90335EB2303C00111249923CA
:101E300019F09093EA0302C0B092EA0346E050E042
:101E4000B80185EE93E00E942933892B11F00E949E
:101E5000E82486E0F801A5EEB3E001900D928A95A2
:101E6000E1F70E941F2A9091F00289138093F002FB
:101E700080913B03843009F06ECD83E08093E900CC
:101E80008091E80082FF67CD8091E80085FF21C046
:101E90000E940C2781111BC080E2882E912C7801B2
:101EA00009C08091F100D7018D937D01B1E08B1ABB
:101EB000910869F08091E80085FDF3CF8091E800FA
:101EC0008B778093E8000E940C27882399F391E098
:101ED00001C090E08091E8008B778093E80099231F
:101EE00009F439CDE9818E2F90E0FC013197E3317F
:101EF000F10508F058C1EE59FF4F0C94FA321A82DE
:101F000089E0BBC08A81823009F48DC1833051F0F1
:101F1000813009F048C10E9498299B838C837D837E
:101F20006E8343C1FE013396CE010D96D3012D91F0
:101F30003D0121938E179F07C9F737C18A818230EF
:101F400009F031C16B817C818D819E810E940033BB
:101F50000E94B92E2AC14C816B818A810E94742E05
:101F60009D8368C12D813E813227232732274C81F2
:101F70006B818A810E944D2E18C10E94B72A15C11B
:101F80008A818138B1F050F4803809F00EC1809117
:101F90004A0320E04B8160914B0331C0823819F134
:101FA000833809F002C18B8120E040914C036C81A1
:101FB00026C060E08B810E946E2F9B818091490337
:101FC000911107C0982F937011F0109250018C7FDF
:101FD00007C0982F937011F4109250018C7F81608C
:101FE00080934903E2C0EB81E43028F4F0E0E1594A
:101FF000FE4F808101C08FE780934D03D6C090E0F3
:102000000E940D2FD2C08A81813899F030F4803837
:1020100009F0CBC080914C0330C0823879F083380E
:1020200009F0C3C080914A038B8380914B038C835A
:10203000BCC080914903869586951FC080914D0351
:10204000873230F08F3530F08E3930F482E015C0B1
:1020500080E013C081E011C083E00FC046E050E093
:102060006CE170E089E493E00E947F3210922B04CF
:102070009CC080E151C0BA8289EF8B8396C0EA8010
:10208000FB80FE24EF24FE248C80912C3801C701B4
:10209000895F9D4F9301201B310B2815390508F0EE
:1020A00084C0B9EFEB16B1E0FB0628F40E94713250
:1020B000F301848303C0D30114961C92BFEFEB1A83
:1020C000FB0AEFEF6E1A7E0AE2CFEA80FB80FE2465
:1020D000EF24FE248C80912C3801C701895F9D4F2D
:1020E0009301201B310B2815390508F05EC0F9EF6C
:1020F000EF16F1E0FF0628F4D30114966C910E94CC
:102100008F32BFEFEB1AFB0AEFEF6E1A7E0AE5CFB4
:102110000E94992A4AC084E08A8347C0EA80FB80F3
:10212000FE24EF24FE248C80912C3801C701879671
:102130009301201B310B28153905B8F5F0EEEF1689
:10214000F1E0FF0630F40E947132D30114968C93B3
:1021500002C0F3011482FFEFEF1AFF0A2FEF621A99
:10216000720AE4CFEA80FB80FE24EF24FE248C80F8
:10217000912C3801C70187969301201B310B28153C
:10218000390598F430EEE31631E0F30628F4D30174
:1021900014966C910E948F32BFEFEB1AFB0AEFEF9F
:1021A0006E1A7E0AE7CF8FEF898380913B038430DC
:1021B00009F0D1CB8091E9008F702091EC00922F33
:1021C000917020FD90E8F92EF82A82E08093E900D2
:1021D0008091E80080FF0CC040E050E060E270E0D9
:1021E000C8010E94D4198091E8008E778093E8009E
:1021F0008F2D8F708093E900AECB09BD19BD09B456
:1022000000FEFDCF8091D8008F7D8093D800809113
:10221000E00082608093E0008091E00081FDFCCFCF
:102220000E94B420A1CB86E290E00E9471321B8212
:102230001C821D828E83B9CF2B30310508F067CD0B
:10224000A5CD2B30310508F0BACDF8CD80E008954A
:102250009091D90292FF0DC0282F2871283019F4CF
:10226000877F846006C0282F2471243011F48B7F6F
:10227000886093FF0DC0282F2871283119F4877EBC
:10228000846106C0282F2471243111F48B7E88616B
:102290002091DA0220FF0DC0382F3871383019F440
:1022A000877F816006C0382F3171313011F48E7F05
:1022B000886021FF0DC0282F2871283119F4877EEE
:1022C000816106C0282F2171213111F48E7E886131
:1022D00094FD877E0895A0E0B0E0E1E7F1E10C9481
:1022E00032327C015B016A0180912E038A3018F042
:1022F00001E010E002C00AE010E0C1E0D0E0B5016A
:10230000C701F6010995811115C021960C171D070B
:1023100094F0CC9F9001CD9F300D300D112480E0C2
:1023200090E045E34A95F1F7000001968217930784
:10233000C1F7E5CF81E0CDB7DEB7EAE00C944E32CD
:10234000A7E0B0E0E6EAF1E10C94383286E0E9E497
:10235000F3E0DE01119601900D928A95E1F78091EC
:102360002A048F8347E050E063E273E0CE010196D8
:102370000E9429338C0160912A0370912B03809174
:102380002C0390912D030E946D29643671058105FF
:10239000910518F40115110519F1809143019091EF
:1023A0004401895E9C4F4091420150E04830510504
:1023B00010F047E050E0BE016F5F7F4F0E94363360
:1023C00085E090E00E94AF31882359F00E9498295F
:1023D00060932A0370932B0380932C0390932D0317
:1023E00081E02796E4E00C945432A1E0B0E0EBEFFA
:1023F000F1E10C942E32C62E4A015901682E880F45
:102400007708C3010E94AF31882309F466C0C30175
:1024100023E0880F991F2A95E1F7FC01E65EFE4F45
:10242000438150E04115510511F041E050E0FC01BD
:10243000E65EFE4F64817581695E7C4FCE01019638
:102440000E943633F40160817181828193810E9400
:102450006D29643671058105910538F4B701C8010D
:102460000E94A22E99818917D1F10C2C000CDD0855
:10247000C6010E94AF31782E8823E1F0E114F10407
:10248000C9F0960183E0220F331F8A95E1F7F90125
:10249000E65EFE4F438150E0E416F50608F4A7011E
:1024A000F901E65EFE4F64817581695E7C4FC5016E
:1024B0000E943633B701C8010E94A22E91E0298103
:1024C000281390E0D92ED72089F00E949829F40192
:1024D000608371838283938309C0D12C02C0DD2481
:1024E000D394A701B801C5010E9436338D2D2196E2
:1024F000EEE00C944A32A5E0B0E0E1E8F2E10C94A1
:1025000034326B0185E0E82EF12C08E113E09E01E6
:102510002F5F3F4F4BE053E061E080E00E94F511F8
:10252000882349F095E0FE013196A6E0B3E00190E2
:102530000D929A95E1F795E0E6E0F3E0D60101907F
:102540000D929A95E1F72596E8E00C94503280912F
:102550000503811118C08091D80080618093D80054
:102560008AE18A95F1F700C08091D90080FD02C010
:1025700082E001C081E080930503823021F40E9453
:10258000ED2610923B0381E090910503913009F014
:1025900080E0089555985D9889B185FB882780F97A
:1025A0000895F894E82FE295EF70F0E031A1282F1C
:1025B0002F7081E090E001C0880F2A95EAF7982FEC
:1025C0009095932391A392A1892B82A37894089547
:1025D000AFE0B0E0EEEEF2E10C9431329E012F5FFD
:1025E0003F4F79018AE0D9011D928A95E9F706E00B
:1025F00011E06901AA24A394B12CF80180818F3FD6
:1026000009F441C0F894E82FE295EF70F0E021A1C1
:102610008F70A50102C0440F551F8A95E2F7CA01C9
:10262000922F982B91A392A18095892382A37894CD
:1026300000C0E0E0F1E0912C31E021912F3F89F0E2
:10264000A22FA295AF70B0E090968C9190E02F7081
:1026500002C0959587952A95E2F780FD02C0832FE9
:1026600001C080E0982A330F51E0E630F50729F7E2
:10267000D8018C918F3F11F00E94D112B0EABA9527
:10268000F1F7F60190820F5F1F4FFFEFCF1ADF0ABD
:1026900021E00B30120709F0B0CF4AE050E0B7015B
:1026A0008DEC92E00E9429338C01892B41F08AE065
:1026B000F701ADECB2E001900D928A95E1F7F09050
:1026C000D8020115110549F081E08093FD020E94B6
:1026D000A4299093FC028093FB028091FD02882341
:1026E000B9F08091FB029091FC020E948929059724
:1026F00078F0ADECB2E0EF2DF0E0EF50FD4F82ED61
:1027000092E02D9121938A179B07D9F71092FD0231
:102710000115110509F0F0C00E94A712E091D8023E
:10272000AE01455F5F4F7A01882309F476C085E0EA
:10273000DA011D928A95E9F70E2F10E00F501D4F18
:1027400080912E038A3048F44BE752E1B701C8016B
:102750000E946B118823B1F10AC08091FE02909112
:10276000FF020E948929843F914070F73CC042E8F3
:1027700056E1B701C8010E946B11882319F14DE998
:1027800054E1B701C8010E946B118823D9F040EAD7
:1027900051E1B701C8010E946B11882399F0109292
:1027A0002E038091D70290E045E050E0B7018F50B2
:1027B0009D4F0E94293321E020930403892BF1F4DB
:1027C00000E029C080912E038F3F19F08F5F809326
:1027D0002E0380912E038A3020F30E94A429909327
:1027E000FF028093FE0280910403882349F385E071
:1027F000F70111928A95E9F710920403A091D7028C
:10280000B0E0AF50BD4F85E0FE013B9601900D92C8
:102810008A95E1F701E010E071C0F0E0EF50FD4F64
:1028200085E0A8E1B3E001900D928A95E1F765E0BB
:1028300070E088E193E00E94A22E809317034091FC
:10284000ED0250E06091EC0270E068517D4FC701ED
:102850000E9436338B8580931E0361E070E0C701D0
:102860000E94A22E80931D03C0901F03D0902003CE
:10287000E0902103F09022038091000390910103E6
:10288000A0910203B0910303C816D906EA06FB061D
:10289000D1F0C0920003D0920103E0920203F092C3
:1028A00003030E94A71281110EC00E949829C61A24
:1028B000D70AE80AF90AC092C902D092CA02E09285
:1028C000CB02F092CC0286E0E3E2F3E0A9E4B3E0CD
:1028D00001900D928A95E1F7F0902903FF2049F0CD
:1028E00080912A04811105C00E94052B80E00E947E
:1028F0009E2FF0922A0402C001E010E0802F2F9654
:10290000EBE00C944D320F931F930E94A712882383
:1029100019F00E9498290EC00E9498290091C902BE
:102920001091CA022091CB023091CC02600F711F2E
:10293000821F931F1F910F910895A4E0B0E0E3EA76
:10294000F4E10C943A326091130370911403809176
:102950001503909116030E946D2964367105810557
:10296000910570F10E948314DC01CB010296A11D38
:10297000B11D89839A83AB83BC8380913B01909185
:102980003C01895E9C4F40913A0150E04530510531
:1029900010F044E050E0BE016F5F7F4F0E9436337D
:1029A00084E090E00E94AF31882359F00E9498297A
:1029B000609313037093140380931503909316038D
:1029C00081E02496E2E00C945632CF93DF93823874
:1029D000910569F1B0F48133910509F46FC048F4B1
:1029E0008932910509F465C08A32910509F46BC0FA
:1029F0008AC08533910509F457C089339105B9F030
:102A000082C0833E910571F138F4803E9105B1F0AA
:102A1000823E910511F177C0863E9105B9F1873E5E
:102A20009105C9F1843E910509F06DC024C0209143
:102A3000D90220FD53C021FD51C065C08091D9024B
:102A400080FD46C08091DA0280FF48C08091D902A3
:102A500084FD50C183EE90E04FC18091D90282FF86
:102A60003AC0F4CF8091D90282FD35C08091DA025C
:102A700080FD34C0EBCF8091DA0281FF35C08091B8
:102A8000D90284FD37C187EE90E036C18091D9022A
:102A900083FF27C0F4CF8091D90283FD22C08091AB
:102AA000DA0281FD21C0EBCF8091D90285FD1FC0E4
:102AB00021C08091D90285FD1DC019C08091D90225
:102AC00086FD1BC01DC08091D90286FD19C015C0AE
:102AD00089E390E011C182EE90E00EC180EE90E0BB
:102AE0000BC186EE90E008C184EE90E005C189E25A
:102AF00090E002C185E390E0FFC08AE290E0FCC074
:102B000081E390E0F9C0811531E5930708F069C0D1
:102B1000811540E59407F0F09C0174E03695279507
:102B20007A95E1F7922F9370482F437021E030E0BF
:102B300002C0220F331F4A95E2F73C68392B982FC9
:102B40009F709695969540E2949FC0011124822B28
:102B5000932BD2C0883E910568F5803E910508F020
:102B6000CBC0883A9105B8F4853A910548F0855A6A
:102B7000E82FF0E0ED58FE4F808190E09064BCC0FB
:102B80008130910509F4B3C008F4B4C084309105D4
:102B900008F4B0C0B1C08F3B910508F0ABC0885AB3
:102BA000E82FF0E0EE0FFF1FEA58FE4F8081918181
:102BB0009464A2C0811520E2920758F4811531E097
:102BC000930708F099C0803F910508F493C0906581
:102BD00093C0811540E4940708F48CC09F70906AFC
:102BE0008BC0811525E5920708F042C0811534E5B8
:102BF000930728F0982F8827846F906A7DC08115ED
:102C000043E59407B0F09C012370332741E050E086
:102C100002C0440F551F2A95E2F7282F26952695C6
:102C200080E2289F90011124CA01822B932B9A687D
:102C300063C0811522E5920728F4982F8827816FB9
:102C4000906A5AC09C012370332741E050E002C0D3
:102C5000440F551F2A95E2F7282F2695269580E2E6
:102C6000289F90011124CA01822B932B9C6844C099
:102C7000EC01811539E59307A8F48115984528F0F2
:102C80009C2F8827806F906A37C0C11586E5D807CA
:102C900088F58C2F0E9428118F7190E0982F88273B
:102CA00090622AC081152AE5920790F48C2F8F70CC
:102CB0000E94281194E0D695C7959A95E1F7CF70B8
:102CC000D0E0DC2FCC27D0699E01282BC90114C08D
:102CD00090568115904270F48D2F8F710E942811AB
:102CE000282F2F71CE0199279062922B05C081E089
:102CF00090E002C080E090E0DF91CF9108950E94C3
:102D000098290895A1E0B0E0E8E8F6E10C943332A8
:102D1000EE24E394F12C0EE113E09E012F5F3F4F70
:102D20004FE053E063E082E00E94F511B82E882363
:102D300009F43DC000E080E09091DB020917A0F5A6
:102D4000D090DC02D00E2D2D30E0A90148515D4F0E
:102D50007A01E1E0F0E0EC0FFD1FE00FF11D1081C2
:102D6000FA019081191BC12E1C145CF4CA94F7015E
:102D700080818F5F808360E08D2D0E94CF0A81E08B
:102D8000F3CF912F17FD90E0191B112359F01F5F0E
:102D9000F70180818150808361E08D2D0E94CF0AF0
:102DA00081E0F3CF0F5FC8CF81110E947F168B2D7A
:102DB0002196E9E00C944F32CF9384E090E00E949A
:102DC0007132C82F82E290E00E9471322C2F30E0E5
:102DD000A901582BCA01CF91089580E090E00E948C
:102DE0007932883E9E4F19F40E94ED2E089580E0BE
:102DF000089580917803982F9670963011F488602A
:102E000001C0877F0E9458200895A7E0B0E0EBE062
:102E1000F7E10C942A32282E4B0120914B018EE0D1
:102E2000289F802D11248E83182F125F153408F0EF
:102E300014E40E94CA12882319F0133208F012E237
:102E40000E94CA12811105C03E81323210F482E222
:102E50008E8390914F0399839E81911708F07CC0D7
:102E6000AE816A2E712CF301E758FD4F908180915D
:102E70004C01892309F46CC030904A0340904B0305
:102E8000522C1F82C301880F991FFC01EF50FE4F87
:102E9000FB83EA83C301880F991F9C012E503E4F8C
:102EA0003D832C83F9815F1608F040C0E52CF12C9E
:102EB000AA81BB81CC90D12CF701E15BFC4F8181D1
:102EC000C81AD108AC81BD81AC90B12C8185A81AFB
:102ED000B108CC9C9001CD9C300D300D1124AA9CE2
:102EE000C001AB9C900D900D1124820F931F0E9486
:102EF000EA23082F60914D0321E0620F08F46FEF81
:102F0000F701EE0FFF1FE15BFC4F818D928D0E9458
:102F100044247C019501A601632D742D8F81F40159
:102F20000995362E472E8F835394BCCF20914C03A6
:102F30008F81382F329F312D1124832F632D742DD3
:102F40000E945E24462F282F672FC3010E94AB23C7
:102F50008E818F5F8E8380CF812F0E944E24279693
:102F6000E2E10C944632A0E0B0E0E9EBF7E10C942A
:102F700034328C01C0914B018EE0C89FC02D1124CA
:102F8000DEE0DC0FD53408F0D4E40E94CA128823B6
:102F900019F0D33208F0D2E20E94CA12811103C0A4
:102FA000C23208F4C2E220914D0331E0230F08F44D
:102FB0002FEF30E040E050E06FEF7FEF80E090E0F7
:102FC0000E94DB327901CD1708F041C0CC2ED12C04
:102FD000F601E758FD4F908180914C018923A9F1BA
:102FE00090914F03915097FD15C0292F092E000C89
:102FF000330BF901E15BFC4F8189C813F3CF220F3A
:10300000331FF901E15BFC4F218D328D2E153F05F9
:1030100048F701C0970160914D0341E0640F08F447
:103020006FEFC9010E944424AC0160914A03709182
:103030004B0380914C03F80109950E945E24462FB2
:10304000282F672FC6010E94AB23CF5FBCCF8D2FE7
:103050000E944E24CDB7DEB7E8E00C945032A0E0D9
:10306000B0E0E5E3F8E10C9431326C01C0914B0122
:103070008EE0C89FC02D1124DEE0DC0FD53408F0AF
:10308000D4E40E94CA12882319F0D33208F0D2E2A5
:103090000E94CA12811103C0C23208F4C2E26091D8
:1030A0004D036695669580914503909146030E9475
:1030B0004424182F80E4810F0E94C92390E8F92E40
:1030C000F80E812F0E94C92320E8922E980ECD176A
:1030D00000F5AC2EB12CF501E758FD4F90818091A1
:1030E0004C018923A1F060914A0370914B038091B8
:1030F0004C03E12E0C2F292D4F2DF60109950E942E
:103100005E24462F282F672FC5010E94AB23CF5F77
:10311000DECF8D2F0E944E24CDB7DEB7EBE00C94AE
:103120004D326F927F928F929F92AF92BF92CF92C9
:10313000DF92EF920F931F93CF93DF933C01C091E7
:103140004B018EE0C89FC02D1124DEE0DC0FD5348A
:1031500008F0D4E40E94CA12882319F0D33208F090
:10316000D2E20E94CA12811103C0C23208F4C2E244
:1031700060914D03669580914503909146030E94AE
:103180004424182FCD1708F044C08C2E912CF40144
:10319000E758FD4F908180914C018923C1F1F401E2
:1031A000EE0FFF1FEF50FE4FC080D12C80E7C81AF2
:1031B000D108F401EE0FFF1FEB54FE4FA5ACB12C6C
:1031C000E0E2AE1AB108CC9C9001CD9C300D300DE0
:1031D0001124AA9CC001AB9C900D900D1124820F6C
:1031E000931F0E94EA23082F60914A0370914B03BA
:1031F00080914C03E12E9501A601F30109950E94EF
:103200005E24462F282F672FC4010E94AB23CF5F77
:10321000B9CF8D2F0E944E24DF91CF911F910F9136
:10322000EF90DF90CF90BF90AF909F908F907F9066
:103230006F900895A0E0B0E0E0E2F9E10C94343240
:103240007C01C0914B018EE0C89FC02D1124DEE0AF
:10325000DC0FD53408F0D4E40E94CA12882319F098
:10326000D33208F0D2E20E94CA12811103C0C232E6
:1032700008F4C2E260914D036695809145039091F8
:1032800046030E944424182FCD1778F5CC2ED12C5C
:10329000F601E758FD4F908180914C01892319F187
:1032A000F601EE0FFF1FEB54FE4F25AD30E020522C
:1032B0003109F601EE0FFF1FEF50FE4F408150E045
:1032C0004057510960914A0370914B0380914C0320
:1032D000012FF70109950E945E24462F282F672FA2
:1032E000C6010E94AB23CF5FCFCF8D2F0E944E240B
:1032F000CDB7DEB7E8E00C945032A0E0B0E0E3E8F0
:10330000F9E10C9435328C01C0914B018EE0C89FDD
:10331000C02D1124DEE0DC0FD53408F0D4E40E9487
:10332000CA12882319F0D33208F0D2E20E94CA12DE
:10333000811103C0C23208F4C2E260914D03669568
:10334000669521E0620F08F46FEF8091450390913C
:1033500046030E944424D82ECD17F0F4EC2EF12C15
:10336000F701E758FD4F908180914C01892391F03E
:1033700060914A0370914B0380914C032D2D4C2F8B
:10338000F80109950E945E24462F282F672FC70158
:103390000E94AB23CF5FE0CF8D2F0E944E24CDB78C
:1033A000DEB7E7E00C945132EF92FF920F931F9338
:1033B000CF93DF937C018B010E940C27811119C0F0
:1033C000E70101151105A1F08091E80085FD0AC013
:1033D0008091E8008E778093E8000E940C27882374
:1033E00081F307C089918093F10001501109E9CF61
:1033F00080E0CDB7DEB7E6E00C945232AAE2B0E04E
:10340000E4E0FAE10C943932EDE3F3E085E493E093
:103410002091F10021938E179F07D1F780913E03F1
:10342000833009F463C030F4813071F0823009F4E4
:103430009DC0B4C08A3009F489C08B3009F46EC0D5
:10344000893009F0ABC020C080913D03813A09F07A
:10345000A5C08091E800877F8093E80080914103B8
:1034600090914203892B21F468E081E393E003C04B
:1034700060E080E090E070E00E94C5288091E80064
:103480008B778093E8008AC080913D03813209F0F8
:1034900085C08091410390914203009719F00297F3
:1034A00009F07CC08091E800877F8093E8008091DC
:1034B000E80082FD05C080913B038111F8CF6EC00A
:1034C0002091F3008091F20090E0922B029731F46A
:1034D0008091F100813011F0863021F48091F1006B
:1034E000809330038091E8008B7754C080913D0336
:1034F000813A09F053C08091410390914203892B96
:1035000009F04CC08091E800877F8093E8008091AB
:10351000E80080FFFCCF80914A0137C080913D03D5
:103520008132E1F58091410390914203892BB1F5FD
:103530008091E800877F8093E8000E943F27809178
:103540003F0380934A010E94B42028C080913D032C
:10355000813221F58091E800877F8093E8000E9406
:103560003F278091400380932F0318C080913D0333
:10357000813AA1F48091E800877F8093E8008091F0
:10358000E80080FFFCCF80912F038093F1008091B1
:10359000E8008E778093E8000E943F278091E80042
:1035A00083FFDFC180913D0390913E03492F50E09E
:1035B0004A30510508F0D5C1FA01EB58FF4F0C9481
:1035C000FA32803821F0823809F0CBC108C08091EE
:1035D000390390913A03992389F082600FC080915A
:1035E00041038F70873008F0BCC18093E90080915F
:1035F000EB0085FB882780F91092E9009091E800A4
:10360000977F9093E8008093F1001092F10070C1D1
:10361000282F2D7F09F0A5C1882319F0823061F091
:10362000A0C180913F03813009F09BC1933009F024
:1036300080E080933A032EC080913F0381112AC01D
:10364000809141038F702FEF280F263008F089C139
:103650008093E9002091EB0020FF1CC0933021F4FF
:103660008091EB00806214C09091EB009061909388
:10367000EB0021E030E0A90102C0440F551F8A95FC
:10368000E2F74093EA001092EA008091EB00886034
:103690008093EB001092E9008091E800877F80938F
:1036A000E8000E943F275DC181115BC110913F037B
:1036B0001F778091E3008078812B8093E3008091D5
:1036C000E800877F8093E8000E943F278091E80010
:1036D00080FFFCCF8091E30080688093E3001111AC
:1036E00002C082E001C083E080933B033AC180586E
:1036F000823008F036C120913F03309140032C3DC9
:1037000053E0350779F583E08A838AE289834FB7EE
:10371000F894DE01139620E03EE051E2E32FF0E062
:1037200050935700E49120FF03C0E295EF703F5F94
:10373000EF708E2F90E0EA3010F0C79601C0C0966F
:103740008D939D932F5F243149F74FBF8091E800FF
:10375000877F8093E8006AE270E0CE0101960E94C4
:10376000C528B4C08091410390914203432F55274F
:1037700043305105A9F068F44130510509F400C106
:103780004230510509F0EDC08BE590E0EBE8F2E046
:103790004BC04132510529F14232510589F1E1C056
:1037A000C901992781309105A1F058F0029709F0DD
:1037B000D8C0E8EFF2E0E4918E2F90E0E8EFF2E07D
:1037C00030C0E2E2F3E0E4918E2F90E0E2E2F3E039
:1037D00028C0E2E1F3E0E4918E2F90E0E2E1F3E033
:1037E00020C08330910508F0BCC0880F991FFC01F0
:1037F000E155FE4F0190F081E02D89E090E014C08A
:103800008330910508F0ADC0FC01EE0FFF1FE755B6
:10381000FE4F0190F081E02DDC01AA55BE4F8C9146
:1038200090E0009709F49DC02091E800277F209345
:10383000E80020914303309144032817390708F426
:10384000C90140E0009789F120913B03222309F44C
:103850003DC02530D9F12091E80023FD37C02091EB
:10386000E80022FD2FC02091E80020FFEBCF40911F
:10387000F3002091F20030E0342B009759F028300B
:10388000310540F444914093F100319601972F5F48
:103890003F4FF3CF41E02830310509F040E020915F
:1038A000E8002E772093E800CDCF4111CDCF0AC09C
:1038B00080913B03882351F0853041F08091E800EE
:1038C00083FD04C08091E80082FFF2CF8091E80080
:1038D0008B778093E80045C0803809F042C0809122
:1038E000E800877F8093E80080913C038093F1009B
:1038F0008091E8008E77D3CE811133C080913F0351
:10390000909140039927029764F58091E800877FA2
:103910008093E80010913F0310933C030E943F27DF
:10392000111106C08091E30087FD02C081E001C053
:1039300084E080933B0342E061EC81E00E945E27DB
:1039400042E261EC84E00E945E2742E261EC82E0A8
:103950000E945E2742E260EC83E00E945E27809135
:103960003B038091E80083FF10C08091E800877FCF
:103970008093E8008091EB0080628093EB0005C0AB
:1039800082E190E0E6EEF2E04FCFAA96E3E00C94FD
:10399000553268EE7EEF80E090E00E94AD3260E04C
:1039A00082E090E00E948F3260E083E090E00E942D
:1039B0008F321092DD0360E084E090E00E948F324D
:1039C00064E082E290E00E948F3260E085E090E067
:1039D0000E948F3260E086E090E00E948F326FEFAD
:1039E00087E090E00E948F3240E050E0BA0188E02A
:1039F00090E00E94A13260E08DE090E00E948F3262
:103A000040E050E0BA0188E190E00E94A13260E01D
:103A100087E190E00E948F3240E050E0BA018CE1F3
:103A200090E00E94A13260E070E080E290E00E94AD
:103A3000AD3240E050E0BA0188E190E00E94A1324E
:103A400080E00E94BE2E0E94DD2E40E050E0BA01D0
:103A50008FE090E00E94A13240E050E0BA0183E1A3
:103A600090E00E94A13208958091DC0381111092B0
:103A7000DC03089580959091DB0389238093DB0319
:103A800008959091DB038091DA03982B909379034A
:103A90008091DC03882389F0892B80937903EBE7FD
:103AA000F3E097E080E0915029F021912223D9F3AF
:103AB0008F5FF9CF81110E94341D48E050E062ED24
:103AC00073E089E793E00E942933892BA9F088E00D
:103AD000E9E7F3E0A2EDB3E001900D928A95E1F7FA
:103AE000E091F003F091F103309731F00280F3811F
:103AF000E02D89E793E00995089580E090E00E9429
:103B0000092A80E090E00E94F3291092DA030E94D3
:103B1000411DE5EEF3E086E0DF011D928A95E9F7AD
:103B20001092DF031092DE031092E0030E94E8245B
:103B300008958091D00390919F03891719F08F5FAA
:103B40008770FBCF08950F931F93CF93DF938091DE
:103B50009E0382958F7009F05AC080919B03882341
:103B600009F455C08091D00310919F03609199038F
:103B700070919A03C0919C03D0919D0391E06F3F97
:103B800009F090E0292F06E0811709F440C0209742
:103B900021F07F3F21F030E003C031E001C0322F3F
:103BA00090E030FD31C0089FF001099FF00D112415
:103BB000DF01A056BC4F11963C911197371324C0DA
:103BC0003C91361321C012963C91129731111CC0C2
:103BD00013964D915C9114974C1B5D0B483C51051D
:103BE00098F480919E038F70806180939E03EB55C3
:103BF000FC4F80818F708061808389E993E00E940F
:103C000089040E94991D03C001968770BDCFDF9182
:103C1000CF911F910F910895CF92DF92FF920F9352
:103C20001F93CF93DF936C01009178038091DD03A4
:103C3000082BC7E0D0E010E0C8010C2E02C095951B
:103C400087950A94E2F780FD04C02197A8F7F12C2C
:103C500009C0FC2EB6018C2F0E94A92A0E94E514EF
:103C6000019799F38F2DDF91CF911F910F91FF90C5
:103C7000DF90CF900895CF93DF93EC010E940C1E4C
:103C8000BE010E94A92A0E94E514DF91CF910895F8
:103C9000FC01808191810E943B1E92959F7096301D
:103CA00079F010F4925001C09A50923068F4803F3D
:103CB00069F018F4883E40F409C0843F29F406C036
:103CC000883E20F0813F11F080E0089581E0089562
:103CD000A1E1B0E0EEE6FEE10C9431328C0185E02A
:103CE000F801DE011D9601900D928A95E1F7F80129
:103CF000E2809091990360919A0340919C035091C6
:103D00009D034115510531F06F3F31F481E09F3F34
:103D100019F403C081E001C080E0F82FF1709F2EFC
:103D200080FD1BC1F80130812181C380D48089E9E5
:103D3000A82E83E0B82EF0909B03F601E41BF50B50
:103D4000FF2009F4C7C080919E03E83CF10508F00C
:103D500092C0482F407F09F051C0621311C09313E5
:103D60000FC0FE2CE1100CC08F70806180939E0309
:103D7000C5010E94890480919E03F80185832AC1B0
:103D8000C114D10431F02F3F31F481E03F3F19F4E9
:103D900003C081E001C080E080FD03C081E08E258A
:103DA00002C080E090E0F82FF170FF2E80FF1CC071
:103DB0008091D00340919F0356E0841709F4E8C036
:103DC00090E0589FF001599FF00D1124E056FC4FF0
:103DD0006181261306C06081631303C06281E6120D
:103DE00003C001968770E9CFFE2CEE2009F4F2C0E3
:103DF00080919E03816080939E0349C0621306C038
:103E0000931304C0E11002C0F80186C0C8010E94EB
:103E1000481E882351F1EE2041F120919E03822F0C
:103E200082958F7090E0029774F080919903909141
:103E30009A0398878F831986DB86CA862C87CE01E2
:103E400007960E94890486E0F801A9E9B3E0019091
:103E50000D928A95E1F70E94A31D0AC06217C9F06E
:103E6000C8010E94481E81111EC0C8010E94890419
:103E7000FF24F394AFC0482F407F81F789E993E096
:103E80000E94890486E0F50111928A95E9F7F12CE8
:103E9000A1C09313E5CFE110E3CFF8018583C801FA
:103EA0000E94890454C0EE2001F320919E03822FCA
:103EB00082958F7090E0029734F2809199039091EF
:103EC0009A039A8389831B82DD82CC822E83CE0162
:103ED0000196B7CFE83CF105D0F5FE2CEE2029F293
:103EE000621327C0931325C020919E0320FD18C0A4
:103EF000822F82958F70482F50E04115510581F037
:103F0000F80125834F30510541F08F5F982F92952E
:103F1000907F822F8F70892B8583C8010E9489042E
:103F200086E0F801A9E9B3E001900D928A95E1F7E6
:103F300051C0C8010E94481E811185CF80919E0307
:103F4000816080939E03C8010E94890443C086E07B
:103F5000F50111928A95E9F73DC0EE2009F485CF6D
:103F6000C8010E94481EF82E882309F47ECF86E0FF
:103F7000F801A9E9B3E001900D928A95E1F78091EB
:103F8000990390919A030E943B1E0E94A31D22C098
:103F90003D872E878D859E850E943B1E292F229569
:103FA0002F70223028F49F7039F0811105C00BC0AA
:103FB000243028F49F7049F4805E883020F0C801D6
:103FC0000E9489049F2CF92C05C0F8019581907FEF
:103FD00099F7F9CF8F2D6196EBE00C944D32292F94
:103FE0009A3078F5863068F590E036E0239F800DB2
:103FF000911D1124682F677023E0969587952A9567
:10400000E1F7FC01EE0FFF1FE80FF91FEF57FC4F20
:1040100040E050E080E0219130E0062E02C036956D
:1040200027950A94E2F721703327042E01C0220F4E
:104030000A94EAF7822B4F5F5F4F4330510559F7DF
:10404000089580E00895292F9A3088F5863078F514
:1040500090E036E0239F800D911D1124282F2770BA
:1040600051E001C0550F2A95EAF723E09695879510
:104070002A95E1F7FC01EE0FFF1FE80FF91FEF573C
:10408000FC4F20E030E070E04081CB01022E02C006
:10409000969587950A94E2F7817081958427852308
:1040A000842781932F5F3F4F2330310569F70895AF
:1040B000809378030E947D1D089521E030E001C0C7
:1040C000220F8A95EAF720958091780382230E9437
:1040D000582008952091D103809582238093D103A5
:1040E000982F977099F430E0482F082E000C550B4C
:1040F0002417350759F09091DA0292FF07C0859591
:10410000859585950E945D201092D1030895CF93E7
:10411000C091DA02C2FB992790F9981791F080FBC1
:10412000C2F9C093DA026091D90284E090E00E9463
:104130008F326C2F82E290E00E948F3282E00E94E8
:104140006A20CF91089521E030E001C0220F8A95C6
:10415000EAF780917803822B0E945820089580937B
:10416000DD030E947D1D08951092DB0386E0EBE7DE
:10417000F3E0DF011D928A95E9F70E947D1D089505
:10418000882321F00E943A1D0E94411D0895882332
:1041900039F09091DB03892B8093DB030E94411D52
:1041A00008951F93CF93DF93182F893319F0C0E040
:1041B000D0E002C0C0E5D0E0812F0E948E0320979E
:1041C00041F08FE99FE00197F1F700C000002197CF
:1041D000F6CF812F0E945303DF91CF911F91089555
:1041E000EF92FF920F939701201B31092F3F31056A
:1041F00019F010F02FEF30E02095382F320F08F42F
:104200003FEF832F0F91FF90EF900895EF92FF9271
:104210000F939701201B31092F3F310519F010F042
:104220002FEF30E0322F3095482F430F08F44FEF37
:10423000842F620F0F91FF90EF900895EF92FF92FD
:104240000F93972F093438F4B701601B71096F3F42
:10425000710519F010F06FEF70E0485F5F4F41316A
:10426000510540F0A901485F5F4F4131510510F001
:104270006FEF70E06095482F460F08F44FEF842FE2
:1042800037FF02C02D5F3F4F359527953595279510
:1042900060914A03620F792F0F91FF90EF9008957C
:1042A000EF92FF920F93E00EF11CF90137FF03C06C
:1042B000F195E195F10924E0EE0FFF1F2A95E1F752
:1042C000EF3FF10519F014F0EFEFF0E09A0157FF1E
:1042D00003C031952195310994E0220F331F9A953F
:1042E000E1F72E173F070CF4F901EE0DFF1DEF3F2C
:1042F000F10519F010F0EFEFF0E02E2F2095382F98
:10430000320F08F43FEF832F0F91FF90EF90089545
:10431000EF92FF920F93970195E0099F200D311DB9
:1043200011242F3F310519F010F02FEF30E02095C8
:10433000382F320F08F43FEF832F0F91FF90EF904B
:10434000089522E8241B08F420E0620F08954095A8
:10435000282F429F412D1124842F08950F931F93DE
:1043600010E0F801EE0FFF1FEF50FE4F90819057C5
:1043700097FD9195000F111FF801EB54FE4FE5AD2D
:10438000F0E0B097DF01AA0FBB1F8D010E0F1F1FBA
:104390002003D001219FB00D1124E8E3F0E0E91BD8
:1043A000F10997FDF3959F01220F331F89010E0F2D
:1043B0001F1F40039001419F300D11242A0F3B1F06
:1043C00037FF02C021583F4F220F232F221F330BEC
:1043D000620F1F910F9108950F931F93522F10E0BA
:1043E000F801EE0FFF1FEB54FE4FE5ADF0E0B09784
:1043F000EE0FFF1F9F015203D001539FB00D1124F8
:10440000000F111FF801EF50FE4F008110E0005720
:104410001109000F111F40039001419F300D11241D
:104420002A0F3B1F37FF02C021583F4F220F232F77
:10443000221F330B620F1F910F9108950F931F934B
:10444000522F10E0F801EE0FFF1FEB54FE4FE5ADC9
:10445000F0E0B0979F015203D001539FB00D11249B
:10446000000F111FF801EF50FE4F008110E00057C0
:10447000110940039001419F300D11242A0F3B1F69
:1044800037FF02C021583F4F220F232F221F330B2B
:10449000620F1F910F910895EF920F931F9393E076
:1044A000099F80011124159507956E2D600F1F91AE
:1044B0000F91EF900895A22F50E0FA01EE0FFF1F29
:1044C000EB54FE4F95AD905297FD9195440F551FBB
:1044D000FA01EF50FE4F3081232F30E02A1B3109C3
:1044E000290F311D97FD3A95620F0895E42FF0E0F2
:1044F000EE0FFF1FEB54FE4F65AD621B0895E42FD6
:10450000F0E0EE0FFF1FEF50FE4F6081621B089539
:10451000622F0895E42FF0E0EE0FFF1FEF50FE4FE3
:10452000408134EE439F412D1124E82FF0E050E00C
:10453000445E5F4FDA01A21BB1099D01B7FF03C0C2
:1045400031952195310993E0220F331F9A95E1F7B8
:10455000AF01421B530B9A0157FF02C020E030E02D
:10456000582F259F212D1124822F0895E42FF0E04C
:10457000EE0FFF1FEF50FE4F408134EE439F412D61
:104580001124E72FF0E050E0445E5F4FDA01A21BF8
:10459000B1099D01B7FF03C031952195310993E021
:1045A000220F331F9A95E1F7AF01421B530B9A017B
:1045B00057FF02C020E030E0279F212D1124722FE9
:1045C0000895FC019B01009721F477FF2BC080E840
:1045D0000895AC0197FF04C044275527481B590B89
:1045E000B901640F751F37FD0CC0241B350BC901C1
:1045F000A5E0880F991FAA95E1F70E94C73280E2D3
:104600000CC0CB0165E0880F991F6A95E1F7BA01EC
:10461000621B730B0E94C73280E6861BF7FF03C044
:104620008195089580E00895EF920F93CF93DF93E3
:10463000D72FC82FC9010E19BA010E94E122602F9D
:10464000681B7D2F8C2FDF91CF910F91EF900895F4
:104650000F93CF93DF93D72FC82FC901BA010E94C0
:10466000E122682F600F7D2F8C2FDF91CF910F916A
:104670000895EF920F931F93CF93DF93D62FC72FF9
:10468000182FC9010E19010FBA010E94E122081B5F
:10469000202F219F212D1124822F6D2F7C2FDF9120
:1046A000CF911F910F91EF900895EF920F931F9369
:1046B000CF93DF93D62F172FC82FC9010E19070FDD
:1046C000BA010E94E122702F781B719F712D112475
:1046D0006D2F8C2FDF91CF911F910F91EF90089547
:1046E000FF920F931F93CF93DF93F62ED72F182FA0
:1046F000C901C12FC01BBA010E94E122982F990F56
:10470000890FC81B2C2F219F212D1124822F6F2D43
:104710007D2FCDB7DEB7E5E00C945332FF920F93B7
:104720001F93CF93DF93F62E172FD82FC901C72FD2
:10473000C01BBA010E94E122982F990F890F7C2F8C
:10474000781B719F712D11246F2D8D2FCDB7DEB782
:10475000E5E00C9453320E94032E0895E9E4F3E05F
:1047600085E3808380915C0190915D01A0915E0161
:1047700081839283A3838FE784838FEF858346E0D1
:1047800050E06CE170E0CF010E947F3210922B0468
:104790000895482F982F46FD9095E92FEF739F704D
:1047A00046FD9F5FE295EF70EE0FF0E0E354FD4FA2
:1047B0002181299F802D212D112482958F70229592
:1047C000207F822B3081982F930F892F47FD819571
:1047D00080580895BC018230910508F40895613E27
:1047E0008EE1780748F49B0195E0369527959A95D8
:1047F000E1F748E0420F01C04FEF91E0242F30E095
:10480000290F311D35952795229FF001239FF00D2B
:10481000F00D11246E177F0718F44FEF420F04C0FC
:104820002F3F39F091E0920F491740F78FEF890F32
:1048300008958FEF08950F93CF93DF93D72FC82F4D
:1048400047FD4195E8E3F0E0CF01841B910947FD66
:104850009395889FB001899F700D700D1124229F40
:10486000C001239F900D900D1124860F971F0E9469
:10487000EA23682F660F860F682F600F7D2F8C2F1D
:10488000DF91CF910F91089520E030E0869F212D98
:10489000969F200D311D1124C9010895CF93C82F73
:1048A0000E94CA12882321F081E0C23228F003C09E
:1048B00081E0C43408F080E0CF910895A0E0B0E03A
:1048C000E4E6F4E20C943432F62E472FE82FF0E0C1
:1048D000711106C0EA5DFC4F8491782F682F73C078
:1048E000272F30E0EA5DFC4FE491FE2F0E2F10E001
:1048F00056E0659FC0011124CFEFD0E0BE010E94B9
:10490000B3325BEA5603C001579F900D11248F0DFF
:10491000911D8F0D911D982F990F980F7E01E21A0E
:10492000F30AE09ED001E19EB00DF09EB00D11247F
:104930008B2F499FA0011124452F55277E01E41A92
:10494000F50AE09EA001E19E500DF09E500D11244D
:104950006E01C91AD108C29E7001C39EF00CD29E8E
:10496000F00C11242F2D3327C21BD30BC09F9001B5
:10497000C19F300DD09F300D1124932F62307105EF
:1049800091F048F461157105E1F061307105B9F4F9
:104990009E2FE52F16C06430710569F040F0663037
:1049A000710579F00CC09E2FEB2F832F0AC0EB2FDF
:1049B0008F2F952F06C09B2F8E2FE32F02C09B2F8A
:1049C000852F7E2F692FCDB7DEB7E8E00C945032EB
:1049D0000E94A4292091E703211104C02091E8033B
:1049E000222321F09093E4038093E3032091E903D1
:1049F000211104C02091EA03222321F09093E203C5
:104A00008093E103E091F003F091F103309749F0D6
:104A100082E08093E5030480F581E02D85EE93E04C
:104A200009950895803F39F49091E80397FF35C0C8
:104A30001092E80359C0813F29F49091E8031916B8
:104A4000BCF32BC09091E703823F29F497FF25C068
:104A50001092E70349C0833F19F41916CCF31DC027
:104A60009091E903893F29F41916BCF41092E903E7
:104A70003BC08A3F19F497FF10C0F8CF8B3F39F441
:104A80009091EA0397FF09C01092EA032DC08C3F72
:104A900021F49091EA031916BCF39CE0980F95302D
:104AA00080F421E030E0A90102C0440F551F9A951F
:104AB000E2F7CA0180959091E60389238093E6038B
:104AC00013C08D3F21F48091E0038E7F0BC08E3F99
:104AD00021F48091E0038D7F05C08F3F29F4809100
:104AE000E0038B7F8093E0038091E703811106C090
:104AF0008091E803811102C01092DF038091E903E5
:104B0000811106C08091EA03811102C01092DE0378
:104B100008958091E00380FD16C081FD16C082FDDE
:104B200018C08091DE03882391F0883290F428E049
:104B3000829FC001112468E270E00E94C732862F74
:104B4000672B29F007C082E0089584E0089581E092
:104B5000089588E008958091E00380FD14C081FDF0
:104B600014C082FD16C08091DF03882381F08E314E
:104B700080F420E5829FC00111246EE170E00E9464
:104B8000C732862F089584E1089588E2089588E069
:104B9000089580E50895803F21F40E94AB2581951A
:104BA00004C0813F29F40E94AB258093E803089557
:104BB000823F21F40E94AB25819504C0833F29F4F4
:104BC0000E94AB258093E7030895893F19F40E9462
:104BD000892505C08A3F31F40E94892581958093FB
:104BE000E90308958B3F21F40E948925819504C033
:104BF0008C3F29F40E9489258093EA0308959CE064
:104C0000980F953078F421E030E0A90102C0440FFC
:104C1000551F9A95E2F7CA019091E603892B80937C
:104C2000E60308958D3F21F48091E00381600BC07D
:104C30008E3F21F48091E003826005C08F3F29F40C
:104C40008091E00384608093E0030895089580914B
:104C5000300308958093F9037093FB036093FA0384
:104C600080913B038430F9F48093E9008FEF9091B9
:104C7000E800815095FD06C095ED9A95F1F700008A
:104C80008111F5CF8091E80085FF0DC040E050E034
:104C900063E070E089EF93E00E94D4198091E8000E
:104CA0008E778093E8000895BC0184E00E942A2654
:104CB0000895BC0183E00E942A26089524E02093F1
:104CC000E9002FEF3091E800215035FD06C035EDA9
:104CD0003A95F1F700002111F5CF2091E80025FF6A
:104CE0000BC040E050E066E070E00E94D419809173
:104CF000E8008E778093E8000895CF93DF9321E05A
:104D00002093E9002FEF3091E800215035FD06C0D7
:104D100035ED3A95F1F700002111F5CF2091E8002B
:104D200025FF14C0EC0140E050E068E070E00E9414
:104D3000D4198091E8008E778093E80088E0FE0126
:104D4000A1E3B3E001900D928A95E1F7DF91CF9155
:104D500008951F920F920FB60F9211242F933F9335
:104D60004F935F936F937F938F939F93AF93BF9373
:104D7000CF93DF93EF93FF93C091E900CF708091C1
:104D8000EC00D82FD17080FDD0E81092E90080911E
:104D9000F000877F8093F00078940E94FE191092B3
:104DA000E9008091F00088608093F000CD2BCF70F7
:104DB000C093E900FF91EF91DF91CF91BF91AF9147
:104DC0009F918F917F916F915F914F913F912F9123
:104DD0000F900FBE0F901F901895E8EDF0E08081C6
:104DE0008E7F80831092E2001092DA001092E10030
:104DF000A0EEB0E08C9181608C9380818F7780836E
:104E000019BCA7EDB0E08C918E7F8C9380818F7E52
:104E100080831092FC0308952091E4003091E50016
:104E200095E64091EC00842F817040FF23C0809173
:104E3000E80080FD1DC080913B03882399F08530F8
:104E400099F08091EB0085FD11C04091E4005091F4
:104E5000E5002417350729F3915011F09A01E1CFAD
:104E600084E0089582E0089583E0089581E0089544
:104E700080E008954091E80042FFDDCF08958091E1
:104E80003D0387FF11C08091E80082FD05C080913D
:104E90003B038111F8CF11C08091E8008B770BC0E4
:104EA00080913B03882349F08091E80080FFF8CF90
:104EB0008091E8008E778093E8000895982F9730CE
:104EC00068F59093E900981739F07091EC00209103
:104ED000ED005091F00003C0242F762F50E021FD0B
:104EE00002C09F5FECCF3091EB003E7F3093EB0030
:104EF0003091ED003D7F3093ED003091EB0031605B
:104F00003093EB007093EC002093ED005093F00091
:104F10002091EE0027FDE5CF80E008958F7080930B
:104F2000E90081E00895A0E0B0E0E9E9F7E20C943F
:104F30003432C8EDD0E088818F7E8883E7EDF0E0E1
:104F400080818160808384E082BF81E08093FC0364
:104F500088818E7F888302EE10E0F8011082109223
:104F6000DA0081EEC82ED12CF601108288818F776D
:104F7000888388818068888388818F7D888319BC35
:104F800010923B0310923C0310923A0310923903A3
:104F900090EEE92EF12CF70180818B7F8083888150
:104FA0008160888342E060E080E00E945E27F60135
:104FB00080818E7F8083F801808181608083808101
:104FC00088608083F70180818E7F80838881806103
:104FD0008883CDB7DEB7E8E00C9450321F920F9271
:104FE0000FB60F9211242F933F934F935F936F93BC
:104FF0007F938F939F93AF93BF93EF93FF93809192
:10500000E10082FF09C08091E20082FF05C080912B
:10501000E1008B7F8093E1008091DA0080FF2AC05D
:105020008091D80080FF26C08091DA008E7F809327
:10503000DA008091D90080FF18C080E189BD82E14B
:1050400089BD09B400FEFDCF81E080933B038091D0
:10505000FC0381110FC00E94ED260E9493278091CE
:10506000E20084608093E20005C019BC10923B030B
:105070001092FC038091E10080FF17C08091E20054
:1050800080FF13C08091E2008E7F8093E2008091C8
:10509000E20080618093E2008091D800806280937A
:1050A000D80019BC85E080933B038091E10084FF28
:1050B00030C08091E20084FF2CC080E189BD82E194
:1050C00089BD09B400FEFDCF8091D8008F7D80930B
:1050D000D8008091E1008F7E8093E1008091E20012
:1050E0008F7E8093E2008091E20081608093E200F5
:1050F00080913C03882311F084E007C08091E30095
:1051000087FD02C081E001C083E080933B03809172
:105110003B038091E10083FF27C08091E20083FF81
:1051200023C08091E100877F8093E10082E080933B
:105130003B0310923C038091E1008E7F8093E1005D
:105140008091E2008E7F8093E2008091E200806196
:105150008093E20042E060E080E00E945E27809160
:10516000F00088608093F000FF91EF91BF91AF91C4
:105170009F918F917F916F915F914F913F912F916F
:105180000F900FBE0F901F90189520914303309100
:1051900044032617370748F06115710539F420914B
:1051A000E8002E772093E80001C0B901FC0120E05F
:1051B0006115710579F180913B038823F1F1853008
:1051C000F1F18091E80083FD3CC08091E80082FD10
:1051D0002EC08091E80080FFEBCF2091F3008091FA
:1051E000F20090E0922B6115710551F08830910525
:1051F00038F421912093F100615071090196F3CFA9
:1052000021E0089709F020E08091E8008E778093F4
:10521000E800CECF2111CFCF0AC080913B03882375
:1052200061F0853061F08091E80083FD0AC08091D3
:10523000E80082FFF2CF80E0089582E0089583E0E5
:10524000089581E0089581E08093E00080E28093FA
:10525000D8001092C9008FE19EE40197F1F700C0D9
:10526000000087E090EBDC018093F8049093F90450
:10527000A093FA04B093FB049CE088E10FB6F89485
:10528000A895809360000FBE90936000FFCF789444
:105290001F920F920FB60F9211248F939F93AF938B
:1052A000BF938091F5039091F603A091F703B0911D
:1052B000F8030196A11DB11D8093F5039093F603A9
:1052C000A093F703B093F803BF91AF919F918F9193
:1052D0000F900FBE0F901F901895CF92DF92EF9214
:1052E000FF922FB7F894C090F503D090F603E090AA
:1052F000F703F090F8032FBFA7019601261B370B89
:10530000480B590BCA01B901FF90EF90DF90CF9085
:1053100008959C014FB7F8948091F5039091F6039E
:10532000A091F703B091F8034FBF821B930B089530
:105330002FB7F8946091F5037091F6038091F7030D
:105340009091F8032FBF08952FB7F8948091F5033B
:105350009091F603A091F703B091F8032FBF089541
:105360001F920F920FB60F9211248F939F93AF93BA
:10537000BF938091F403811113C08091F503909144
:10538000F603A091F703B091F8034196A11DB11D5A
:105390008093F5039093F603A093F703B093F8037B
:1053A000BF91AF919F918F910F900FBE0F901F9063
:1053B00018959C01FC0132969FEF80E041914617C1
:1053C00089F09F3F19F4411101C0982F8F5F8630FB
:1053D000A9F79F3F39F0F901E90FF11D97FDFA9503
:1053E0006283089508952091F2033091F303281702
:1053F000390771F09093F3038093F203E091F00387
:10540000F091F103309721F00084F185E02D0995AA
:1054100008952091EE033091EF032817390771F0BA
:105420009093EF038093EE03E091F003F091F1038A
:10543000309721F00680F781E02D099508950E94AC
:10544000A712882359F0E091F003F091F10330970F
:1054500029F00190F081E02D0995089580E00895EC
:105460000F931F93CF93DF93C42FD22FFC01828120
:105470008823B1F04093ED030E94A4299093EC039C
:105480008093EB0380E28C0F883008F04DC0C7702A
:1054900081E001C0880FCA95EAF70E94C72044C086
:1054A0008091ED03481330C08091EB039091EC03A1
:1054B0000E948929883C910538F510E21D0FCD170F
:1054C000B9F080E28C0F883040F4C77081E001C0F1
:1054D000880FCA95EAF70E94C020183010F581E0C5
:1054E0009D2F977001C0880F9A95EAF70E94C720F8
:1054F000802F0E94D1201830B8F4D77081E001C00D
:10550000880FDA95EAF70AC080E28C0F883060F4E1
:10551000C77081E001C0880FCA95EAF70E94C020D9
:1055200003C0802F0E94D120DF91CF911F910F9156
:105530000895CF93DF93C7E0D2E060E0CE010E94F0
:105540008F322196C11584E0D807B9F7DF91CF914A
:105550000895843048F47A3038F4663028F4462FC1
:10556000672F0E94742E089580E090E00895A0E0D7
:10557000B0E0EDEBFAE20C943232A12CE12CF12CEC
:10558000B12C00E010E0C0E0D0E06701C00ED11EF9
:10559000FE01EE0FFF1FEC0DFD1DEA5DFB4F259197
:1055A00034914C2F6B2D8A2D0E944D2E2196C630A2
:1055B000D10571F7045F1F4FB3948AE0B812E3CFAF
:1055C00088E7E80EF11CA39484E0A812D9CFCDB7E8
:1055D000DEB7EAE00C944E32FF920F931F93CF9305
:1055E000DF93182F062FF42EC0E0D0E02F2D402F90
:1055F000612FCE010E94AB232196C434D105B1F7AF
:10560000CDB7DEB7E5E00C945332A0E0B0E0EBE0BC
:10561000FBE20C943332C82F80914F018C130DC0E4
:1056200020914903237030E040914E0150E081E029
:105630002417350719F480E001C081E08170809360
:105640004D0180914E0390914C01981739F0809351
:105650004C0140E060E080E00E94EC2AC13119F486
:105660008BE194E207C0C23108F0EDC1C83029F4E3
:105670008EE893E20E941A1930C0C93008F0B9C10F
:10568000C33009F43EC008F0FAC0C13009F09EC032
:1056900080914B01DEE08D9FD02D11241EE01D0F67
:1056A000153408F014E40E94CA12811173C00E94DC
:1056B000CA12882309F473C060914A0370914B03A6
:1056C00080914C030E945E24062FF72EE82ED117FE
:1056D00008F46AC0812F0E944E2490914B019F5F75
:1056E00090934B0181116EC282E0809350018091B2
:1056F0004D01811167C2C11165C283E080935001E1
:1057000061C2D0914B018EE0D89FD02D11241EE0B4
:105710001D0F153408F014E40E94CA12882319F0F2
:10572000133208F012E20E94CA12811103C0D23271
:1057300008F4D2E2D0904B03C0904C0320914D036B
:1057400000E4029F012D1124D11708F0C3CFED2EE4
:10575000F12CF701E758FD4F908180914C0189238E
:10576000B9F0F701EE0FFF1FEB54FE4F85AD8295A8
:105770008F7060914A03809F600D11247D2D8C2DC8
:105780000E945E24462F282F672FC7010E94AB235B
:10579000DF5FDACF133208F48ACF12E288CFD23239
:1057A00008F08ACFD2E288CFED2FF0E0DF01A758D2
:1057B000BD4F8C9190914C01982331F02E2D402FAC
:1057C0006F2DCF010E94AB23DF5F81CFC23058F431
:1057D00080914D01882309F450C040E060E080E0F2
:1057E0000E94EC2A4AC0D0914B018EE0D89FD02D68
:1057F00011241EE01D0F153408F014E40E94CA1293
:10580000882319F0133208F012E20E94CA128111A3
:1058100003C0D23208F4D2E2F0904B0300914C0363
:10582000E0904A03B701802F0E945E24D62EC72E37
:10583000B82E60914D036E0D7F2D802F0E945E2447
:10584000062FF72EE82ED11708F044CF8D2F90E0C9
:10585000FC01E758FD4F308120914C01232359F082
:1058600030FF04C02E2D402F6F2D03C02B2D4D2D4A
:105870006C2D0E94AB23DF5FE6CF80E02ECFC530DA
:1058800009F052C0D0914B018EE0D89FD02D112449
:105890001EE01D0F153408F014E40E94CA1288237C
:1058A00019F0133208F012E20E94CA12811103C0EB
:1058B000D23208F4D2E2F0904A0300914B03E09018
:1058C0004C0360914D0366956695669580914503FE
:1058D000909146030E9444240E94C923805887FD6A
:1058E0008195880F282F3E2D239F212D1124822F53
:1058F0006F2D702F0E945E24062FF72EE82ED117F1
:1059000008F0E8CEED2FF0E0DF01A758BD4F8C91F5
:1059100090914C01982331F02E2D402F6F2DCF0107
:105920000E94AB23DF5FEBCFC53008F04DC0D091B4
:105930004B018EE0D89FD02D11241EE01D0F153491
:1059400008F014E40E94CA12882319F0133208F0F8
:1059500012E20E94CA12811103C0D23208F4D2E2CC
:10596000D0904B03C0904C0320914D0300E4029F64
:10597000012D1124D11708F0ADCEED2EF12CF70139
:10598000E758FD4F908180914C018923D9F0F701B0
:10599000EE0FFF1FEF50FE4F6081069FB0011124F4
:1059A00045E0759567954A95E1F780914A03680F40
:1059B0007D2D8C2D0E945E24462F282F672FC70136
:1059C0000E94AB23DF5FD6CFC63019F486EB92E29C
:1059D00004C0C73041F48AE892E20E947D197DCE6E
:1059E000CF3F09F4BEC080914B018F5F80934B0184
:1059F0007BCECC3019F488E892E2EFCFCD3078F44A
:105A0000CA3041F485E593E202C089E393E20E9443
:105A1000911863CECB30C8F780E793E22BCECE301F
:105A200019F486E792E2D9CFCE3018F48FE792E2EC
:105A3000D4CFCF3019F48BE592E2CFCFC03199F6B5
:105A40008CE492E2E4CFCA3179F468E871E208C0EC
:105A5000C03208F06EC0CC3109F04BC060E571E295
:105A600080E00E94051739CECB31A8F5C53141F44D
:105A70008CEE91E202C08EE192E20E942F182DCEB0
:105A8000C63150F4C33119F484E193E2C0CFC4317C
:105A900090F788E293E2EECDC73151F487EA91E2C4
:105AA00004C0C83151F481EA91E20E94B31715CEC7
:105AB000C731B8F78EEA91E2E0CFC93109F093CF50
:105AC00080914F0321E0382F321B08F430E0832F00
:105AD00068E871E2C6CFCF3109F0BACF80914F03A9
